:030000000201A753
:0C01A700787FE4F6D8FD75810C0201BDE4
:0A01B3003F065B4F666D7D077F6F0E
:0701C500AE071FEE70FA22E5
:10017200C2B6E4FEEFC4131313540124FF92B4EF8A
:0B01820025E0FFC2B6D2B60EBE08E9B1
:01018D00224F
:10014E00E4FFFEC2B6FDFCEF25E0FFEE33FED2B6B5
:10015E00C2B6A2B7E43342070DBD00010CED640C2C
:03016E004C70E4EE
:01017100226B
:10018E00C2B6C2B51201727F06DFFED2B60000C241
:08019E00B6000012014ED2B5BB
:0101A6002236
:10000300E508B4320CE4F5087FA412018EAA06AB0E
:100013000705087C037DE8AF03AE021200BC74B38E
:100023002FF58274013EF583E493F5097C037DE8A3
:10003300AF03AE021200BC7E007F64CFCDCFCECC27
:10004300CE1200BC74B32FF58274013EF583E493A2
:10005300F50A7C037DE8AF03AE021200BC7E007F8D
:1000630064CFCDCFCECCCE1200BC7E007F0ACFCDE5
:10007300CFCECCCE1200BC74B32FF58274013EF503
:1000830083E493F50B7C037DE8AF03AE021200BC5F
:100093007E007F64CFCDCFCECCCE1200BC7E007F5E
:1000A3000ACFCDCFCECCCE1200BC74B32DF5827463
:0800B300013CF583E493F50C18
:0100BB002222
:10011100E4FDED14600E14601314601424037016D2
:10012100C2A28002D2A2C2A3C2A4800AC2A2800239
:10013100D2A2D2A3C2A4C374039D2409F8E6F58018
:0C0141007F641201C5E4F5800DBD04C60A
:01014D00228F
:0801BD0012000312011180F889
:1000BC00BC000BBE0029EF8DF084FFADF022E4CC28
:1000CC00F875F008EF2FFFEE33FEEC33FCEE9DECF1
:1000DC00984005FCEE9DFE0FD5F0E9E4CEFD22ED37
:1000EC00F8F5F0EE8420D21CFEADF075F008EF2F81
:1000FC00FFED33FD4007985006D5F0F222C398FD72
:05010C000FD5F0EA220E
:00000001FF
