:0300000002000EED
:0C000E00787FE4F6D8FD758133020055C0
:10012400100A3F065B4F666D7D077F6F777C395EF3
:100134007971181A01010100010101000100000197
:0C014400010100000100010000000000AB
:10009A00758901758C3C758AB0D2AFD2A9D28CE42D
:1000AA00F532F533F508F509E51A24FF92A2E51BA6
:1000BA0024FF92A3E51C24FF92A4850A80C3E5339A
:1000CA009414E532940040F5E4F532F53305080559
:1000DA0009E50894104005E4F580F508E509C3949C
:1000EA00084003E4F509E50975F003A4241AF8E6C3
:1000FA0024FF92A2E50975F003A4241BF8E624FF65
:10010A0092A3E50975F003A4241CF8E624FF92A43F
:0A011A00740A2508F8E6F58080A3BA
:10016400D3EF9400EE94004007EF1F70F31E80F06D
:010174002268
:03000B000201519E
:10015100C0E00533E53370020532758C3C758AB019
:03016100D0E032B9
:10001A0002009AE493A3F8E493A34003F68001F262
:10002A0008DFF48029E493A3F85407240CC8C333E7
:10003A00C4540F4420C8834004F456800146F6DFB6
:10004A00E4800B0102040810204080900124E47E21
:10005A00019360BCA3FF543F30E509541FFEE493AB
:10006A00A360010ECF54C025E060A840B8E493A372
:10007A00FAE493A3F8E493A3C8C582C8CAC583CA9D
:10008A00F0A3C8C582C8CAC583CADFE9DEE780BE55
:0101500000AE
:00000001FF
