:0A01BC000808070B0D0E70B0D0E02C
:0B01B100EF1FAC0670011E4C70F62220
:10012A00E4FBFA75900FE590640F607A7F107E27E2
:10013A001201B1E590640F606DE4FFFE74082FF8B8
:10014A00E6B590068E108F11800B0FBF00010EEFDF
:10015A0064044E70E77590F07E007F0474082FF8EF
:10016A00E6B5901DEF24FCFFEE34FFFEEF7802C3E4
:10017A0033CE33CED8F92511F511EE3510F51080AE
:10018A000B0FBF00010EEF64084E70D0C3EB94F45E
:10019A00EA94015011E59064F0600B7F107E2712FB
:0601AA0001B10BBB0000D7
:0101B000222C
:1000030075100075111012012AE5106003020095A6
:10001300E511B41000507B900021F82828730200EA
:100023005102005502005902005D02006702006B95
:1000330002006F02007302007702007B02007F025E
:10004300008302008702008B02008F020093B2A09C
:10005300800AB2A18006B2A28002B2A37510007515
:100063001110802EB2A4802AB2A58026B2A68022C7
:10007300B2A7801EB2A0801AB2A18016B2A28012CB
:10008300B2A3800EB2A4800AB2A58006B2A68002F3
:0B009300B2A7751000751110020009E3
:0300000002009E5D
:0C009E00787FE4F6D8FD7581110200E5C2
:1000AA00020003E493A3F8E493A34003F68001F269
:1000BA0008DFF48029E493A3F85407240CC8C33357
:1000CA00C4540F4420C8834004F456800146F6DF26
:1000DA00E4800B01020408102040809001BCE47EF9
:1000EA00019360BCA3FF543F30E509541FFEE4931B
:1000FA00A360010ECF54C025E060A840B8E493A3E2
:10010A00FAE493A3F8E493A3C8C582C8CAC583CA0C
:10011A00F0A3C8C582C8CAC583CADFE9DEE780BEC4
:0101C6000038
:00000001FF
