:0300000002009764
:0C009700787FE4F6D8FD75812002001E81
:10000300758910758C3C758AB0D2AFD2ABD28EE4B1
:05001300F50CF50D22C3
:10001E00120003D3E50B9405E50A9400401BE4F5AA
:10002E000AF50B3000080509E509700205082000E5
:10003E0008E509150970021508E50964C845087038
:10004E0002C200E50945087002D200D3E50D94C83E
:10005E00E50C94004005E4F50CF50DC3E50D95098E
:0E006E00E50C95085004D2A180A9C2A180A57E
:03001B0002007C64
:10007C00C0E0050DE50D7002050C050BE50B7002DB
:0B008C00050A758C3C758AB0D0E0328C
:00000001FF
