:030000000200D922
:0C00D900787FE4F6D8FD7581070200F086
:0B00E500EF1FAC0670011E4C70F622ED
:0200A700AD07A3
:1000A900D2B5D2B6E4FBEDC4131313540124FF9265
:1000B900B4ED25E0FDC2B67F0A7E001200E5D2B696
:0F00C9000BBB08E2C2B57F0A7E001200E5D2B57C
:0100D8002205
:0800F00012000312005580F814
:100003009000647F801200A77580F77F401200A7DD
:100013007580D77F201200A77580C37F101200A7B9
:100023007580B77F081200A77580C17F041200A7EF
:100033007580F77F021200A77580F77F011200A772
:100043007580F7E582158270021583E5824583701A
:01005300B2FA
:010054002289
:100055009000647F801200A77580C77F401200A7BB
:100065007580DB7F201200A77580DB7F101200A74B
:100075007580C77F081200A77580C77F041200A787
:100085007580DB7F021200A77580DB7F011200A758
:100095007580C7E582158270021583E582458370F8
:0100A500B2A8
:0100A6002237
:00000001FF
