:1000030075A0FE750800750901120069E509450828
:10001300600AE5A025E06401F5A08008E5A0C3130C
:100023006480F5A0E5A0B4FF16E509450860101249
:100033000069E4F508F509E5A0C313F5A08014E50C
:10004300A0B4FF0F120069750800750901E5A0252A
:10005300E0F5A0E5A064FE6005E5A0B47F04C295C9
:0600630080A7D29580A3E6
:10006900E4FFFEE4FDFC0DBD00010CBC01F8BD90F0
:0C007900F50FBF00010EEF64644E70E74D
:010085002258
:10008600AE05EFA806088002C333D8FC6401FFBFA3
:08009600FF051200697FFE2244
:0300000002009E5D
:0C009E00787FE4F6D8FD758109020003AC
:00000001FF
